{
  "_format": "hh3-artifact-1",
  "contractName": "StakingPool",
  "sourceName": "contracts/StakingPool.sol",
  "abi": [
    {
      "inputs": [
        {
          "internalType": "contract IERC20",
          "name": "_stakingToken",
          "type": "address"
        },
        {
          "internalType": "contract IERC20",
          "name": "_rewardToken",
          "type": "address"
        },
        {
          "internalType": "enum StakingPool.RewardMode",
          "name": "_mode",
          "type": "uint8"
        },
        {
          "internalType": "uint256",
          "name": "_aprOrRewardPerBlock",
          "type": "uint256"
        }
      ],
      "stateMutability": "nonpayable",
      "type": "constructor"
    },
    {
      "inputs": [],
      "name": "InsufficientStake",
      "type": "error"
    },
    {
      "inputs": [],
      "name": "NotOwner",
      "type": "error"
    },
    {
      "inputs": [],
      "name": "ZeroAmount",
      "type": "error"
    },
    {
      "anonymous": false,
      "inputs": [
        {
          "indexed": false,
          "internalType": "uint256",
          "name": "aprBps",
          "type": "uint256"
        }
      ],
      "name": "AprUpdated",
      "type": "event"
    },
    {
      "anonymous": false,
      "inputs": [
        {
          "indexed": true,
          "internalType": "address",
          "name": "previousOwner",
          "type": "address"
        },
        {
          "indexed": true,
          "internalType": "address",
          "name": "newOwner",
          "type": "address"
        }
      ],
      "name": "OwnershipTransferred",
      "type": "event"
    },
    {
      "anonymous": false,
      "inputs": [
        {
          "indexed": false,
          "internalType": "enum StakingPool.RewardMode",
          "name": "mode",
          "type": "uint8"
        }
      ],
      "name": "RewardModeUpdated",
      "type": "event"
    },
    {
      "anonymous": false,
      "inputs": [
        {
          "indexed": true,
          "internalType": "address",
          "name": "user",
          "type": "address"
        },
        {
          "indexed": false,
          "internalType": "uint256",
          "name": "reward",
          "type": "uint256"
        }
      ],
      "name": "RewardPaid",
      "type": "event"
    },
    {
      "anonymous": false,
      "inputs": [
        {
          "indexed": false,
          "internalType": "uint256",
          "name": "rewardPerBlock",
          "type": "uint256"
        }
      ],
      "name": "RewardPerBlockUpdated",
      "type": "event"
    },
    {
      "anonymous": false,
      "inputs": [
        {
          "indexed": true,
          "internalType": "address",
          "name": "user",
          "type": "address"
        },
        {
          "indexed": false,
          "internalType": "uint256",
          "name": "amount",
          "type": "uint256"
        }
      ],
      "name": "Staked",
      "type": "event"
    },
    {
      "anonymous": false,
      "inputs": [
        {
          "indexed": true,
          "internalType": "address",
          "name": "user",
          "type": "address"
        },
        {
          "indexed": false,
          "internalType": "uint256",
          "name": "amount",
          "type": "uint256"
        }
      ],
      "name": "Withdrawn",
      "type": "event"
    },
    {
      "inputs": [],
      "name": "accRewardPerShare",
      "outputs": [
        {
          "internalType": "uint256",
          "name": "",
          "type": "uint256"
        }
      ],
      "stateMutability": "view",
      "type": "function"
    },
    {
      "inputs": [],
      "name": "aprBps",
      "outputs": [
        {
          "internalType": "uint256",
          "name": "",
          "type": "uint256"
        }
      ],
      "stateMutability": "view",
      "type": "function"
    },
    {
      "inputs": [],
      "name": "claim",
      "outputs": [
        {
          "internalType": "uint256",
          "name": "paid",
          "type": "uint256"
        }
      ],
      "stateMutability": "nonpayable",
      "type": "function"
    },
    {
      "inputs": [
        {
          "internalType": "uint256",
          "name": "amount",
          "type": "uint256"
        }
      ],
      "name": "depositRewards",
      "outputs": [],
      "stateMutability": "nonpayable",
      "type": "function"
    },
    {
      "inputs": [],
      "name": "lastRewardBlock",
      "outputs": [
        {
          "internalType": "uint256",
          "name": "",
          "type": "uint256"
        }
      ],
      "stateMutability": "view",
      "type": "function"
    },
    {
      "inputs": [],
      "name": "owner",
      "outputs": [
        {
          "internalType": "address",
          "name": "",
          "type": "address"
        }
      ],
      "stateMutability": "view",
      "type": "function"
    },
    {
      "inputs": [
        {
          "internalType": "address",
          "name": "account",
          "type": "address"
        }
      ],
      "name": "pendingRewards",
      "outputs": [
        {
          "internalType": "uint256",
          "name": "",
          "type": "uint256"
        }
      ],
      "stateMutability": "view",
      "type": "function"
    },
    {
      "inputs": [],
      "name": "rewardMode",
      "outputs": [
        {
          "internalType": "enum StakingPool.RewardMode",
          "name": "",
          "type": "uint8"
        }
      ],
      "stateMutability": "view",
      "type": "function"
    },
    {
      "inputs": [],
      "name": "rewardPerBlock",
      "outputs": [
        {
          "internalType": "uint256",
          "name": "",
          "type": "uint256"
        }
      ],
      "stateMutability": "view",
      "type": "function"
    },
    {
      "inputs": [],
      "name": "rewardToken",
      "outputs": [
        {
          "internalType": "contract IERC20",
          "name": "",
          "type": "address"
        }
      ],
      "stateMutability": "view",
      "type": "function"
    },
    {
      "inputs": [
        {
          "internalType": "uint256",
          "name": "_aprBps",
          "type": "uint256"
        }
      ],
      "name": "setAprBps",
      "outputs": [],
      "stateMutability": "nonpayable",
      "type": "function"
    },
    {
      "inputs": [
        {
          "internalType": "enum StakingPool.RewardMode",
          "name": "mode",
          "type": "uint8"
        },
        {
          "internalType": "uint256",
          "name": "aprOrRewardPerBlock",
          "type": "uint256"
        }
      ],
      "name": "setRewardMode",
      "outputs": [],
      "stateMutability": "nonpayable",
      "type": "function"
    },
    {
      "inputs": [
        {
          "internalType": "uint256",
          "name": "_rewardPerBlock",
          "type": "uint256"
        }
      ],
      "name": "setRewardPerBlock",
      "outputs": [],
      "stateMutability": "nonpayable",
      "type": "function"
    },
    {
      "inputs": [
        {
          "internalType": "uint256",
          "name": "amount",
          "type": "uint256"
        }
      ],
      "name": "stake",
      "outputs": [],
      "stateMutability": "nonpayable",
      "type": "function"
    },
    {
      "inputs": [],
      "name": "stakingToken",
      "outputs": [
        {
          "internalType": "contract IERC20",
          "name": "",
          "type": "address"
        }
      ],
      "stateMutability": "view",
      "type": "function"
    },
    {
      "inputs": [],
      "name": "totalStaked",
      "outputs": [
        {
          "internalType": "uint256",
          "name": "",
          "type": "uint256"
        }
      ],
      "stateMutability": "view",
      "type": "function"
    },
    {
      "inputs": [
        {
          "internalType": "address",
          "name": "newOwner",
          "type": "address"
        }
      ],
      "name": "transferOwnership",
      "outputs": [],
      "stateMutability": "nonpayable",
      "type": "function"
    },
    {
      "inputs": [
        {
          "internalType": "address",
          "name": "",
          "type": "address"
        }
      ],
      "name": "userInfo",
      "outputs": [
        {
          "internalType": "uint256",
          "name": "amount",
          "type": "uint256"
        },
        {
          "internalType": "uint256",
          "name": "lastRewardTimestamp",
          "type": "uint256"
        },
        {
          "internalType": "uint256",
          "name": "rewardAccrued",
          "type": "uint256"
        },
        {
          "internalType": "uint256",
          "name": "rewardDebt",
          "type": "uint256"
        }
      ],
      "stateMutability": "view",
      "type": "function"
    },
    {
      "inputs": [
        {
          "internalType": "uint256",
          "name": "amount",
          "type": "uint256"
        }
      ],
      "name": "withdraw",
      "outputs": [],
      "stateMutability": "nonpayable",
      "type": "function"
    }
  ],
  "bytecode": "0x60c060405234801561000f575f5ffd5b5060405161233038038061233083398181016040528101906100319190610215565b8373ffffffffffffffffffffffffffffffffffffffff1660808173ffffffffffffffffffffffffffffffffffffffff16815250508273ffffffffffffffffffffffffffffffffffffffff1660a08173ffffffffffffffffffffffffffffffffffffffff1681525050335f5f6101000a81548173ffffffffffffffffffffffffffffffffffffffff021916908373ffffffffffffffffffffffffffffffffffffffff160217905550815f60146101000a81548160ff021916908360018111156100fc576100fb610279565b5b0217905550436004819055505f600181111561011b5761011a610279565b5b82600181111561012e5761012d610279565b5b0361013f5780600181905550610147565b806002819055505b505050506102a6565b5f5ffd5b5f73ffffffffffffffffffffffffffffffffffffffff82169050919050565b5f61017d82610154565b9050919050565b5f61018e82610173565b9050919050565b61019e81610184565b81146101a8575f5ffd5b50565b5f815190506101b981610195565b92915050565b600281106101cb575f5ffd5b50565b5f815190506101dc816101bf565b92915050565b5f819050919050565b6101f4816101e2565b81146101fe575f5ffd5b50565b5f8151905061020f816101eb565b92915050565b5f5f5f5f6080858703121561022d5761022c610150565b5b5f61023a878288016101ab565b945050602061024b878288016101ab565b935050604061025c878288016101ce565b925050606061026d87828801610201565b91505092959194509250565b7f4e487b71000000000000000000000000000000000000000000000000000000005f52602160045260245ffd5b60805160a05161204d6102e35f395f81816106bd0152818161101a01526114be01525f81816104a30152818161064b0152610a38015261204d5ff3fe608060405234801561000f575f5ffd5b506004361061011f575f3560e01c80638da5cb5b116100ab578063a9f8d1811161006f578063a9f8d181146102e6578063bb872b4a14610304578063c06e9be214610320578063f2fde38b1461033c578063f7c618c1146103585761011f565b80638da5cb5b14610254578063939d623714610272578063942d5a7814610290578063978c51a5146102ac578063a694fc3a146102ca5761011f565b80634e71d92d116100f25780634e71d92d146101c057806372f702f3146101de578063817b1cd2146101fc5780638ae39cac1461021a5780638bdf67f2146102385761011f565b80631959a0021461012357806325ac1df2146101565780632e1a7d4d1461017457806331d7a26214610190575b5f5ffd5b61013d600480360381019061013891906117f5565b610376565b60405161014d9493929190611838565b60405180910390f35b61015e6103a2565b60405161016b919061187b565b60405180910390f35b61018e600480360381019061018991906118be565b6103a8565b005b6101aa60048036038101906101a591906117f5565b6105cd565b6040516101b7919061187b565b60405180910390f35b6101c8610628565b6040516101d5919061187b565b60405180910390f35b6101e6610649565b6040516101f39190611944565b60405180910390f35b61020461066d565b604051610211919061187b565b60405180910390f35b610222610673565b60405161022f919061187b565b60405180910390f35b610252600480360381019061024d91906118be565b610679565b005b61025c61079a565b604051610269919061196c565b60405180910390f35b61027a6107be565b604051610287919061187b565b60405180910390f35b6102aa60048036038101906102a591906119a8565b6107c4565b005b6102b46109eb565b6040516102c19190611a59565b60405180910390f35b6102e460048036038101906102df91906118be565b6109fd565b005b6102ee610be7565b6040516102fb919061187b565b60405180910390f35b61031e600480360381019061031991906118be565b610bed565b005b61033a600480360381019061033591906118be565b610d2f565b005b610356600480360381019061035191906117f5565b610e69565b005b610360611018565b60405161036d9190611944565b60405180910390f35b6006602052805f5260405f205f91509050805f0154908060010154908060020154908060030154905084565b60015481565b5f81036103e1576040517f1f2a200500000000000000000000000000000000000000000000000000000000815260040160405180910390fd5b5f60065f3373ffffffffffffffffffffffffffffffffffffffff1673ffffffffffffffffffffffffffffffffffffffff1681526020019081526020015f20905081815f0154101561045e576040517ff1bc94d200000000000000000000000000000000000000000000000000000000815260040160405180910390fd5b6104673361103c565b81815f015f8282546104799190611a9f565b925050819055508160035f8282546104919190611a9f565b925050819055506104a13361112d565b7f000000000000000000000000000000000000000000000000000000000000000073ffffffffffffffffffffffffffffffffffffffff1663a9059cbb33846040518363ffffffff1660e01b81526004016104fc929190611ad2565b6020604051808303815f875af1158015610518573d5f5f3e3d5ffd5b505050506040513d601f19601f8201168201806040525081019061053c9190611b2e565b61057b576040517f08c379a000000000000000000000000000000000000000000000000000000000815260040161057290611bb3565b60405180910390fd5b3373ffffffffffffffffffffffffffffffffffffffff167f7084f5476618d8e60b11ef0d7d3f06914655adb8793e28ff7f018d4c76d505d5836040516105c1919061187b565b60405180910390a25050565b5f5f60018111156105e1576105e06119e6565b5b5f60149054906101000a900460ff166001811115610602576106016119e6565b5b0361061757610610826111f1565b9050610623565b610620826112c6565b90505b919050565b5f6106323361103c565b61063b33611414565b90506106463361112d565b90565b7f000000000000000000000000000000000000000000000000000000000000000081565b60035481565b60025481565b5f81116106bb576040517f08c379a00000000000000000000000000000000000000000000000000000000081526004016106b290611c1b565b60405180910390fd5b7f000000000000000000000000000000000000000000000000000000000000000073ffffffffffffffffffffffffffffffffffffffff166323b872dd3330846040518463ffffffff1660e01b815260040161071893929190611c39565b6020604051808303815f875af1158015610734573d5f5f3e3d5ffd5b505050506040513d601f19601f820116820180604052508101906107589190611b2e565b610797576040517f08c379a000000000000000000000000000000000000000000000000000000000815260040161078e90611cb8565b60405180910390fd5b50565b5f5f9054906101000a900473ffffffffffffffffffffffffffffffffffffffff1681565b60055481565b5f5f9054906101000a900473ffffffffffffffffffffffffffffffffffffffff1673ffffffffffffffffffffffffffffffffffffffff163373ffffffffffffffffffffffffffffffffffffffff1614610849576040517f30cd747100000000000000000000000000000000000000000000000000000000815260040160405180910390fd5b5f6003541461088d576040517f08c379a000000000000000000000000000000000000000000000000000000000815260040161088490611d20565b60405180910390fd5b815f60146101000a81548160ff021916908360018111156108b1576108b06119e6565b5b02179055505f60018111156108c9576108c86119e6565b5b8260018111156108dc576108db6119e6565b5b036108f4575f60028190555080600181905550610903565b5f600181905550806002819055505b436004819055505f6005819055507f27869d8cf884e11613a367fba889d21e4e9b9d630426166cf60816435d75080c826040516109409190611a59565b60405180910390a15f600181111561095b5761095a6119e6565b5b82600181111561096e5761096d6119e6565b5b036109af577f16bc525116a7ec45cf36d84a97ab6b444a8c5264cc1a9468bfae786131561115816040516109a2919061187b565b60405180910390a16109e7565b7f5ed0ffa545a9eae0edd36b74378d16454cf385281383c7632ad5b2ebf3ab2b92816040516109de919061187b565b60405180910390a15b5050565b5f60149054906101000a900460ff1681565b5f8103610a36576040517f1f2a200500000000000000000000000000000000000000000000000000000000815260040160405180910390fd5b7f000000000000000000000000000000000000000000000000000000000000000073ffffffffffffffffffffffffffffffffffffffff166323b872dd3330846040518463ffffffff1660e01b8152600401610a9393929190611c39565b6020604051808303815f875af1158015610aaf573d5f5f3e3d5ffd5b505050506040513d601f19601f82011682018060405250810190610ad39190611b2e565b610b12576040517f08c379a0000000000000000000000000000000000000000000000000000000008152600401610b0990611d88565b60405180910390fd5b610b1b3361103c565b5f60065f3373ffffffffffffffffffffffffffffffffffffffff1673ffffffffffffffffffffffffffffffffffffffff1681526020019081526020015f20905081815f015f828254610b6d9190611da6565b925050819055508160035f828254610b859190611da6565b92505081905550610b953361112d565b3373ffffffffffffffffffffffffffffffffffffffff167f9e71bc8eea02a63969f509818f2dafb9254532904319f9dbda79b67bd34a5f3d83604051610bdb919061187b565b60405180910390a25050565b60045481565b5f5f9054906101000a900473ffffffffffffffffffffffffffffffffffffffff1673ffffffffffffffffffffffffffffffffffffffff163373ffffffffffffffffffffffffffffffffffffffff1614610c72576040517f30cd747100000000000000000000000000000000000000000000000000000000815260040160405180910390fd5b600180811115610c8557610c846119e6565b5b5f60149054906101000a900460ff166001811115610ca657610ca56119e6565b5b14610ce6576040517f08c379a0000000000000000000000000000000000000000000000000000000008152600401610cdd90611e23565b60405180910390fd5b610cee6115eb565b806002819055507f5ed0ffa545a9eae0edd36b74378d16454cf385281383c7632ad5b2ebf3ab2b9281604051610d24919061187b565b60405180910390a150565b5f5f9054906101000a900473ffffffffffffffffffffffffffffffffffffffff1673ffffffffffffffffffffffffffffffffffffffff163373ffffffffffffffffffffffffffffffffffffffff1614610db4576040517f30cd747100000000000000000000000000000000000000000000000000000000815260040160405180910390fd5b5f6001811115610dc757610dc66119e6565b5b5f60149054906101000a900460ff166001811115610de857610de76119e6565b5b14610e28576040517f08c379a0000000000000000000000000000000000000000000000000000000008152600401610e1f90611e8b565b60405180910390fd5b806001819055507f16bc525116a7ec45cf36d84a97ab6b444a8c5264cc1a9468bfae78613156111581604051610e5e919061187b565b60405180910390a150565b5f5f9054906101000a900473ffffffffffffffffffffffffffffffffffffffff1673ffffffffffffffffffffffffffffffffffffffff163373ffffffffffffffffffffffffffffffffffffffff1614610eee576040517f30cd747100000000000000000000000000000000000000000000000000000000815260040160405180910390fd5b5f73ffffffffffffffffffffffffffffffffffffffff168173ffffffffffffffffffffffffffffffffffffffff1603610f5c576040517f08c379a0000000000000000000000000000000000000000000000000000000008152600401610f5390611ef3565b60405180910390fd5b8073ffffffffffffffffffffffffffffffffffffffff165f5f9054906101000a900473ffffffffffffffffffffffffffffffffffffffff1673ffffffffffffffffffffffffffffffffffffffff167f8be0079c531659141344cd1fd0a4f28419497f9722a3daafe3b4186f6b6457e060405160405180910390a3805f5f6101000a81548173ffffffffffffffffffffffffffffffffffffffff021916908373ffffffffffffffffffffffffffffffffffffffff16021790555050565b7f000000000000000000000000000000000000000000000000000000000000000081565b5f600181111561104f5761104e6119e6565b5b5f60149054906101000a900460ff1660018111156110705761106f6119e6565b5b036110835761107e816116a9565b61112a565b61108b6115eb565b5f60065f8373ffffffffffffffffffffffffffffffffffffffff1673ffffffffffffffffffffffffffffffffffffffff1681526020019081526020015f2090505f815f01541115611128575f8160030154670de0b6b3a7640000600554845f01546110f69190611f11565b6111009190611f7f565b61110a9190611a9f565b905080826002015f82825461111f9190611da6565b92505081905550505b505b50565b5f60065f8373ffffffffffffffffffffffffffffffffffffffff1673ffffffffffffffffffffffffffffffffffffffff1681526020019081526020015f2090506001808111156111805761117f6119e6565b5b5f60149054906101000a900460ff1660018111156111a1576111a06119e6565b5b036111d757670de0b6b3a7640000600554825f01546111c09190611f11565b6111ca9190611f7f565b81600301819055506111ed565b5f815f015411156111ec574281600101819055505b5b5050565b5f5f60065f8473ffffffffffffffffffffffffffffffffffffffff1673ffffffffffffffffffffffffffffffffffffffff1681526020019081526020015f2090505f816002015490505f825f01540361124e5780925050506112c1565b5f826001015490505f8103611268578193505050506112c1565b5f81426112759190611a9f565b90506301e133806127106112899190611f11565b81600154865f015461129b9190611f11565b6112a59190611f11565b6112af9190611f7f565b836112ba9190611da6565b9450505050505b919050565b5f5f60065f8473ffffffffffffffffffffffffffffffffffffffff1673ffffffffffffffffffffffffffffffffffffffff1681526020019081526020015f2090505f60055490505f60045490505f60035411801561132357508043115b8015611360575060018081111561133d5761133c6119e6565b5b5f60149054906101000a900460ff16600181111561135e5761135d6119e6565b5b145b156113b6575f81436113729190611a9f565b90505f600254826113839190611f11565b9050600354670de0b6b3a76400008261139c9190611f11565b6113a69190611f7f565b846113b19190611da6565b935050505b5f836002015490505f845f01541115611408578360030154670de0b6b3a764000084865f01546113e69190611f11565b6113f09190611f7f565b6113fa9190611a9f565b816114059190611da6565b90505b80945050505050919050565b5f5f60065f8473ffffffffffffffffffffffffffffffffffffffff1673ffffffffffffffffffffffffffffffffffffffff1681526020019081526020015f2090505f6001811115611468576114676119e6565b5b5f60149054906101000a900460ff166001811115611489576114886119e6565b5b036114a357806002015491505f81600201819055506114b4565b806002015491505f81600201819055505b5f8211156115e5577f000000000000000000000000000000000000000000000000000000000000000073ffffffffffffffffffffffffffffffffffffffff1663a9059cbb84846040518363ffffffff1660e01b8152600401611517929190611ad2565b6020604051808303815f875af1158015611533573d5f5f3e3d5ffd5b505050506040513d601f19601f820116820180604052508101906115579190611b2e565b611596576040517f08c379a000000000000000000000000000000000000000000000000000000000815260040161158d90611ff9565b60405180910390fd5b8273ffffffffffffffffffffffffffffffffffffffff167fe2403640ba68fed3a2f88b7557551d1993f84b99bb10ff833f0cf8db0c5e0486836040516115dc919061187b565b60405180910390a25b50919050565b6001808111156115fe576115fd6119e6565b5b5f60149054906101000a900460ff16600181111561161f5761161e6119e6565b5b036116a7576004544311156116a7575f6003540361164357436004819055506116a7565b5f600454436116529190611a9f565b90505f600254826116639190611f11565b9050600354670de0b6b3a76400008261167c9190611f11565b6116869190611f7f565b60055f8282546116969190611da6565b925050819055504360048190555050505b565b5f60065f8373ffffffffffffffffffffffffffffffffffffffff1673ffffffffffffffffffffffffffffffffffffffff1681526020019081526020015f2090505f815f0154036116f95750611794565b5f816001015490505f8103611718574282600101819055505050611794565b5f81426117259190611a9f565b90505f810361173657505050611794565b6301e133806127106117489190611f11565b81600154855f015461175a9190611f11565b6117649190611f11565b61176e9190611f7f565b836002015f8282546117809190611da6565b925050819055504283600101819055505050505b50565b5f5ffd5b5f73ffffffffffffffffffffffffffffffffffffffff82169050919050565b5f6117c48261179b565b9050919050565b6117d4816117ba565b81146117de575f5ffd5b50565b5f813590506117ef816117cb565b92915050565b5f6020828403121561180a57611809611797565b5b5f611817848285016117e1565b91505092915050565b5f819050919050565b61183281611820565b82525050565b5f60808201905061184b5f830187611829565b6118586020830186611829565b6118656040830185611829565b6118726060830184611829565b95945050505050565b5f60208201905061188e5f830184611829565b92915050565b61189d81611820565b81146118a7575f5ffd5b50565b5f813590506118b881611894565b92915050565b5f602082840312156118d3576118d2611797565b5b5f6118e0848285016118aa565b91505092915050565b5f819050919050565b5f61190c6119076119028461179b565b6118e9565b61179b565b9050919050565b5f61191d826118f2565b9050919050565b5f61192e82611913565b9050919050565b61193e81611924565b82525050565b5f6020820190506119575f830184611935565b92915050565b611966816117ba565b82525050565b5f60208201905061197f5f83018461195d565b92915050565b60028110611991575f5ffd5b50565b5f813590506119a281611985565b92915050565b5f5f604083850312156119be576119bd611797565b5b5f6119cb85828601611994565b92505060206119dc858286016118aa565b9150509250929050565b7f4e487b71000000000000000000000000000000000000000000000000000000005f52602160045260245ffd5b60028110611a2457611a236119e6565b5b50565b5f819050611a3482611a13565b919050565b5f611a4382611a27565b9050919050565b611a5381611a39565b82525050565b5f602082019050611a6c5f830184611a4a565b92915050565b7f4e487b71000000000000000000000000000000000000000000000000000000005f52601160045260245ffd5b5f611aa982611820565b9150611ab483611820565b9250828203905081811115611acc57611acb611a72565b5b92915050565b5f604082019050611ae55f83018561195d565b611af26020830184611829565b9392505050565b5f8115159050919050565b611b0d81611af9565b8114611b17575f5ffd5b50565b5f81519050611b2881611b04565b92915050565b5f60208284031215611b4357611b42611797565b5b5f611b5084828501611b1a565b91505092915050565b5f82825260208201905092915050565b7f7769746864726177207472616e736665720000000000000000000000000000005f82015250565b5f611b9d601183611b59565b9150611ba882611b69565b602082019050919050565b5f6020820190508181035f830152611bca81611b91565b9050919050565b7f7a65726f20616d6f756e740000000000000000000000000000000000000000005f82015250565b5f611c05600b83611b59565b9150611c1082611bd1565b602082019050919050565b5f6020820190508181035f830152611c3281611bf9565b9050919050565b5f606082019050611c4c5f83018661195d565b611c59602083018561195d565b611c666040830184611829565b949350505050565b7f7265776172642066756e64207472616e736665720000000000000000000000005f82015250565b5f611ca2601483611b59565b9150611cad82611c6e565b602082019050919050565b5f6020820190508181035f830152611ccf81611c96565b9050919050565b7f706f6f6c206e6f7420656d7074790000000000000000000000000000000000005f82015250565b5f611d0a600e83611b59565b9150611d1582611cd6565b602082019050919050565b5f6020820190508181035f830152611d3781611cfe565b9050919050565b7f7374616b65207472616e736665720000000000000000000000000000000000005f82015250565b5f611d72600e83611b59565b9150611d7d82611d3e565b602082019050919050565b5f6020820190508181035f830152611d9f81611d66565b9050919050565b5f611db082611820565b9150611dbb83611820565b9250828201905080821115611dd357611dd2611a72565b5b92915050565b7f6e6f74207065722d626c6f636b206d6f646500000000000000000000000000005f82015250565b5f611e0d601283611b59565b9150611e1882611dd9565b602082019050919050565b5f6020820190508181035f830152611e3a81611e01565b9050919050565b7f6e6f7420415052206d6f646500000000000000000000000000000000000000005f82015250565b5f611e75600c83611b59565b9150611e8082611e41565b602082019050919050565b5f6020820190508181035f830152611ea281611e69565b9050919050565b7f7a65726f206f776e6572000000000000000000000000000000000000000000005f82015250565b5f611edd600a83611b59565b9150611ee882611ea9565b602082019050919050565b5f6020820190508181035f830152611f0a81611ed1565b9050919050565b5f611f1b82611820565b9150611f2683611820565b9250828202611f3481611820565b91508282048414831517611f4b57611f4a611a72565b5b5092915050565b7f4e487b71000000000000000000000000000000000000000000000000000000005f52601260045260245ffd5b5f611f8982611820565b9150611f9483611820565b925082611fa457611fa3611f52565b5b828204905092915050565b7f726577617264207472616e7366657200000000000000000000000000000000005f82015250565b5f611fe3600f83611b59565b9150611fee82611faf565b602082019050919050565b5f6020820190508181035f83015261201081611fd7565b905091905056fea2646970667358221220a5a8b88aa70fa70057f40f0b5f5beb67134ca1cd24b0922a7da5778341ff7d9064736f6c634300081c0033",
  "linkReferences": {},
  "deployedLinkReferences": {},
  "immutableReferences": {
    "266": [
      {
        "length": 32,
        "start": 1187
      },
      {
        "length": 32,
        "start": 1611
      },
      {
        "length": 32,
        "start": 2616
      }
    ],
    "269": [
      {
        "length": 32,
        "start": 1725
      },
      {
        "length": 32,
        "start": 4122
      },
      {
        "length": 32,
        "start": 5310
      }
    ]
  },
  "inputSourceName": "project/contracts/StakingPool.sol",
  "buildInfoId": "solc-0_8_28-08bc552fecf378252637f882a874445a8614d882"
}